:02000000FE2FD1
:100F560083160313851605108312031305148316CF
:100F6600031386010800AB2783120313851ABC2FCF
:100F7600BD2FB72F21308600851EC22FC32FBF2F4E
:100F8600851AC62FC72FC32F01308600851ECC2F8A
:100F9600CD2FC92F851AD02FD12FCD2FE130860026
:100FA600851ED62FD72FD32F851ADA2FDB2FD72FD3
:100FB60025308600851EE02FE12FDD2F851AE42FD0
:100FC600E52FE12FF9308600851EEA2FEB2FE72F5C
:100FD600851AEE2FEF2FEB2FC7308600851EF42FD4
:100FE600F52FF12FFF30831603138500FF3086009F
:0A0FF6006300B72F00288301B62F17
:02400E00DB3F96
:00000001FF
